:020000040800F2
:10000000005000205D190008451700084B17000834
:1000100051170008571700085D170008000000007E
:10002000000000000000000000000000631700084E
:100030006F170008000000007B17000887170008F2
:10004000A5190008A5190008A5190008A519000898
:10005000A5190008A5190008A5190008A519000888
:10006000A5190008A5190008A5190008A519000878
:10007000A5190008A5190008A5190008A519000868
:10008000A5190008A5190008A5190008A519000858
:10009000A5190008A5190008A5190008A519000848
:1000A000A5190008A5190008A5190008A519000838
:1000B00095170008A5190008A5190008A51900083A
:1000C000A5190008A5190008A5190008A519000818
:1000D000A5190008A9170008BD170008A5190008F0
:1000E000A5190008A5190008A519000800000000BE
:1000F0000000000000000000000000000000000000
:0C01000000000000000000005FF808F1A3
:1001100010B5054C237833B9044B13B10448AFF341
:1001200000800123237010BD780000200000000033
:10013000949E000808B5034B1BB103490348AFF375
:10014000008008BD000000007C000020949E000894
:1001500081F0004102E000BF83F0004330B54FEA78
:1001600041044FEA430594EA050F08BF90EA020FE5
:100170001FBF54EA000C55EA020C7FEA645C7FEA78
:10018000655C00F0E2804FEA5454D4EB5555B8BF9B
:100190006D420CDD2C4480EA020281EA030382EA0C
:1001A000000083EA010180EA020281EA0303362D9E
:1001B00088BF30BD11F0004F4FEA01314FF4801C71
:1001C0004CEA113102D0404261EB410113F0004F83
:1001D0004FEA03334CEA133302D0524263EB43033A
:1001E00094EA050F00F0A780A4F10104D5F1200ED8
:1001F0000DDB02FA0EFC22FA05F2801841F1000133
:1002000003FA0EF2801843FA05F359410EE0A5F106
:1002100020050EF1200E012A03FA0EFC28BF4CF037
:10022000020C43FA05F3C01851EBE37101F00045ED
:1002300007D54FF0000EDCF1000C7EEB00006EEBFA
:100240000101B1F5801F1BD3B1F5001F0CD3490884
:100250005FEA30004FEA3C0C04F101044FEA4452DB
:1002600012F5800F80F09A80BCF1004F08BF5FEA62
:10027000500C50F1000041EB045141EA050130BD42
:100280005FEA4C0C404141EB0101013C28BFB1F554
:10029000801FE9D291F0000F04BF01460020B1FA9F
:1002A00081F308BF2033A3F10B03B3F120020CDA72
:1002B0000C3208DD02F1140CC2F10C0201FA0CF050
:1002C00021FA02F10CE002F11402D8BFC2F1200CB5
:1002D00001FA02F120FA0CFCDCBF41EA0C0190406B
:1002E000E41AA2BF01EB0451294330BD6FEA0404B4
:1002F0001F3C1CDA0C340EDC04F11404C4F120029F
:1003000020FA04F001FA02F340EA030021FA04F3B0
:1003100045EA030130BDC4F10C04C4F1200220FA07
:1003200002F001FA04F340EA0300294630BD21FA45
:1003300004F0294630BD94F0000F83F4801306BF0B
:1003400081F480110134013D4EE77FEA645C18BFFF
:100350007FEA655C29D094EA050F08BF90EA020F96
:1003600005D054EA000C04BF1946104630BD91EA8E
:10037000030F1EBF0021002030BD5FEA545C05D191
:100380004000494128BF41F0004130BD14F58004D0
:100390003CBF01F5801130BD01F0004545F0FE4144
:1003A00041F470014FF0000030BD7FEA645C1ABF79
:1003B000194610467FEA655C1CBF0B46024650EAB0
:1003C000013406BF52EA033591EA030F41F40021DC
:1003D00030BD00BF90F0000F04BF0021704730B562
:1003E0004FF4806404F132044FF000054FF0000137
:1003F00050E700BF90F0000F04BF0021704730B5F8
:100400004FF4806404F1320410F0004548BF4042CC
:100410004FF000013EE700BF42004FEAE2014FEA21
:1004200031014FEA02701FBF12F07F4393F07F4FFC
:1004300081F06051704732F07F4208BF704793F0FF
:100440007F4F04BF41F40021704730B54FF4607412
:1004500001F0004521F000411CE700BF50EA010215
:1004600008BF704730B54FF000050AE050EA0102BE
:1004700008BF704730B511F0004502D5404261EB2E
:1004800041014FF4806404F132045FEA915C3FF46F
:10049000D8AE4FF003025FEADC0C18BF03325FEA0C
:1004A000DC0C18BF033202EBDC02C2F1200300FABD
:1004B00003FC20FA02F001FA03FE40EA0E0021FAE2
:1004C00002F11444BDE600BF70B54FF0FF0C4CF4D0
:1004D000E06C1CEA11541DBF1CEA135594EA0C0F82
:1004E00095EA0C0F00F0DEF82C4481EA030621EABD
:1004F0004C5123EA4C5350EA013518BF52EA0335F8
:1005000041F4801143F4801338D0A0FB02CE4FF0A9
:100510000005E1FB02E506F00042E0FB03E54FF0D9
:100520000006E1FB03569CF0000F18BF4EF0010ED1
:10053000A4F1FF04B6F5007F64F5407404D25FEACD
:100540004E0E6D4146EB060642EAC62141EA555180
:100550004FEAC52040EA5E504FEACE2EB4F1FD0CC2
:1005600088BFBCF5E06F1ED8BEF1004F08BF5FEA40
:10057000500E50F1000041EB045170BD06F00046F2
:1005800046EA010140EA020081EA0301B4EB5C049F
:10059000C2BFD4EB0C0541EA045170BD41F4801197
:1005A0004FF0000E013C00F3AB8014F1360FDEBFBC
:1005B000002001F0004170BDC4F10004203C35DA98
:1005C0000C341BDC04F11404C4F1200500FA05F31B
:1005D00020FA04F001FA05F240EA020001F00042BC
:1005E00021F0004110EBD37021FA04F642EB060132
:1005F0005EEA430E08BF20EAD37070BDC4F10C045C
:10060000C4F1200500FA04F320FA05F001FA04F21F
:1006100040EA020001F0004110EBD37041F100010B
:100620005EEA430E08BF20EAD37070BDC4F1200516
:1006300000FA05F24EEA020E20FA04F301FA05F27E
:1006400043EA020321FA04F001F0004121FA04F226
:1006500020EA020000EBD3705EEA430E08BF20EAF6
:10066000D37070BD94F0000F0FD101F00046400030
:1006700041EB010111F4801F08BF013CF7D041EAB2
:10068000060195F0000F18BF704703F000465200B6
:1006900043EB030313F4801F08BF013DF7D043EA87
:1006A0000603704794EA0C0F0CEA135518BF95EA3D
:1006B0000C0F0CD050EA410618BF52EA4306D1D1C4
:1006C00081EA030101F000414FF0000070BD50EAE3
:1006D000410606BF1046194652EA430619D094EA6D
:1006E0000C0F02D150EA013613D195EA0C0F05D157
:1006F00052EA03361CBF104619460AD181EA0301AB
:1007000001F0004141F0FE4141F470014FF0000062
:1007100070BD41F0FE4141F4780170BD70B54FF0FD
:10072000FF0C4CF4E06C1CEA11541DBF1CEA13557D
:1007300094EA0C0F95EA0C0F00F0A7F8A4EB05045F
:1007400081EA030E52EA03354FEA013100F0888056
:100750004FEA03334FF0805545EA131343EA12631F
:100760004FEA022245EA111545EA10654FEA0026D4
:100770000EF000419D4208BF964244F1FD0404F58D
:10078000407402D25B084FEA3202B61A65EB0305E9
:100790005B084FEA32024FF480104FF4002CB6EBA6
:1007A000020E75EB030E22BFB61A754640EA0C0026
:1007B0005B084FEA3202B6EB020E75EB030E22BF66
:1007C000B61A754640EA5C005B084FEA3202B6EBA7
:1007D000020E75EB030E22BFB61A754640EA9C0066
:1007E0005B084FEA3202B6EB020E75EB030E22BF36
:1007F000B61A754640EADC0055EA060E18D04FEAF4
:10080000051545EA16754FEA06164FEAC30343EA93
:1008100052734FEAC2025FEA1C1CC0D111F4801F60
:100820000BD141EA00014FF000004FF0004CB6E759
:1008300011F4801F04BF01430020B4F1FD0C88BFF8
:10084000BCF5E06F3FF6AFAEB5EB030C04BFB6EB03
:10085000020C5FEA500C50F1000041EB045170BDF6
:100860000EF0004E4EEA113114EB5C04C2BFD4EB23
:100870000C0541EA045170BD41F480114FF0000EA7
:10088000013C90E645EA060E8DE60CEA135594EA23
:100890000C0F08BF95EA0C0F3FF43BAF94EA0C0F26
:1008A0000AD150EA01347FF434AF95EA0C0F7FF49B
:1008B00025AF104619462CE795EA0C0F06D152EAEF
:1008C00003353FF4FDAE1046194622E750EA4106D3
:1008D00018BF52EA43067FF4C5AE50EA41047FF4E4
:1008E0000DAF52EA43057FF4EBAE12E74FF0FF3C49
:1008F00006E000BF4FF0010C02E000BF4FF0010C1A
:100900004DF804CD4FEA410C7FEA6C5C4FEA430C92
:1009100018BF7FEA6C5C1BD001B050EA410C0CBFE1
:1009200052EA430C91EA030F02BF90EA020F002043
:10093000704710F1000F91EA030F58BF994208BFAA
:1009400090422CBFD8176FEAE37040F00100704767
:100950004FEA410C7FEA6C5C02D150EA013C07D1BE
:100960004FEA430C7FEA6C5CD6D152EA033CD3D009
:100970005DF8040B704700BF8446104662468C4603
:100980001946634600E000BF01B5FFF7B7FF002836
:1009900048BF10F1000F01BD4DF808EDFFF7F4FF5F
:1009A0000CBF012000205DF808FB00BF4DF808EDEA
:1009B000FFF7EAFF34BF012000205DF808FB00BF0D
:1009C0004DF808EDFFF7E0FF94BF012000205DF82F
:1009D00008FB00BF4DF808EDFFF7CEFF94BF0120E4
:1009E00000205DF808FB00BF4DF808EDFFF7C4FFDD
:1009F00034BF012000205DF808FB00BF4FEA410C26
:100A00007FEA6C5C02D150EA013C0AD14FEA430C08
:100A10007FEA6C5C02D152EA033C02D14FF0000045
:100A200070474FF0010070474FEA410212F5001283
:100A300015D211D56FF47873B3EB625212D94FEA25
:100A4000C12343F0004343EA505311F0004F23FA0F
:100A500002F018BF404270474FF00000704750EA64
:100A6000013005D111F0004008BF6FF00040704721
:100A70004FF00000704700BF4A0011D212F500127B
:100A800011D20DD56FF47873B3EB62520ED44FEAE6
:100A9000C12343F0004343EA505323FA02F0704766
:100AA0004FF00000704750EA013002D14FF0FF30A4
:100AB00070474FF0000070474FEA4102B2F1E04347
:100AC00024BFB3F5001CDCF1FE5C0DD901F0004C35
:100AD0004FEAC0024CEA5070B2F1004F40EB830085
:100AE00008BF20F00100704711F0804F21D113F1B1
:100AF0003872BCBF01F00040704741F480114FEAEA
:100B00005252C2F11802C2F1200C10FA0CF320FA72
:100B100002F018BF40F001004FEAC1234FEAD3238F
:100B200003FA0CFC40EA0C0023FA02F34FEA4303F9
:100B3000CCE77FEA625307D150EA01331EBF4FF082
:100B4000FE4040F44000704701F0004040F0FE409D
:100B500040F40000704700BF80F0004002E000BF9A
:100B600081F0004142001FBF5FEA410392EA030F98
:100B70007FEA226C7FEA236C6AD04FEA1262D2EBE2
:100B80001363C1BFD218414048404140B8BF5B42E7
:100B9000192B88BF704710F0004F40F4000020F080
:100BA0007F4018BF404211F0004F41F4000121F096
:100BB0007F4118BF494292EA030F3FD0A2F10102E0
:100BC00041FA03FC10EB0C00C3F1200301FA03F11E
:100BD00000F0004302D5494260EB4000B0F5000F41
:100BE00013D3B0F1807F06D340084FEA310102F100
:100BF0000102FE2A51D2B1F1004F40EBC25008BFB2
:100C000020F0010040EA03007047490040EB00007B
:100C1000013A28BFB0F5000FEDD2B0FA80FCACF17C
:100C2000080CB2EB0C0200FA0CF0AABF00EBC250A9
:100C300052421843BCBFD0401843704792F0000F97
:100C400081F4000106BF80F400000132013BB5E7EA
:100C50004FEA41037FEA226C18BF7FEA236C21D060
:100C600092EA030F04D092F0000F08BF08467047C5
:100C700090EA010F1CBF0020704712F07F4F04D193
:100C8000400028BF40F00040704712F100723CBFA6
:100C900000F50000704700F0004343F0FE4040F4D0
:100CA000000070477FEA226216BF08467FEA23638E
:100CB0000146420206BF5FEA412390EA010F40F479
:100CC000800070474FF0000304E000BF10F00043C5
:100CD00048BF40425FEA000C08BF704743F09643AC
:100CE00001464FF000001CE050EA010208BF7047C7
:100CF0004FF000030AE000BF50EA010208BF70474E
:100D000011F0004302D5404261EB41015FEA010C62
:100D100002BF84460146002043F0B64308BFA3F15A
:100D20008053A3F50003BCFA8CF2083AA3EBC2533C
:100D300010DB01FA02FC634400FA02FCC2F120025B
:100D4000BCF1004F20FA02F243EB020008BF20F092
:100D50000100704702F1200201FA02FCC2F12002F8
:100D600050EA4C0021FA02F243EB020008BF20EAED
:100D7000DC7070474FF0FF0C1CEAD0521EBF1CEA1B
:100D8000D15392EA0C0F93EA0C0F6FD01A4480EA09
:100D9000010C400218BF5FEA41211ED04FF00063F2
:100DA00043EA501043EA5111A0FB01310CF000401E
:100DB000B1F5000F3EBF490041EAD3715B0040EA44
:100DC000010062F17F02FD2A1DD8B3F1004F40EB14
:100DD000C25008BF20F00100704790F0000F0CF0E7
:100DE000004C08BF49024CEA502040EA51207F3AAB
:100DF000C2BFD2F1FF0340EAC250704740F4000086
:100E00004FF00003013A5DDC12F1190FDCBF00F076
:100E100000407047C2F10002410021FA02F1C2F124
:100E2000200200FA02FC5FEA310040F1000053EAC0
:100E30004C0308BF20EADC70704792F0000F00F00E
:100E4000004C02BF400010F4000F013AF9D040EA14
:100E50000C0093F0000F01F0004C02BF490011F4A8
:100E6000000F013BF9D041EA0C018FE70CEAD153A6
:100E700092EA0C0F18BF93EA0C0F0AD030F0004C26
:100E800018BF31F0004CD8D180EA010000F00040DA
:100E9000704790F0000F17BF90F0004F084691F098
:100EA000000F91F0004F14D092EA0C0F01D14202D2
:100EB0000FD193EA0C0F03D14B0218BF084608D19B
:100EC00080EA010000F0004040F0FE4040F40000E5
:100ED000704740F0FE4040F4400070474FF0FF0C78
:100EE0001CEAD0521EBF1CEAD15392EA0C0F93EABF
:100EF0000C0F69D0A2EB030280EA010C49024FEA11
:100F0000402037D04FF0805343EA111143EA1013C9
:100F10000CF000408B4238BF5B0042F17D024FF481
:100F2000000C8B4224BF5B1A40EA0C00B3EB510F5C
:100F300024BFA3EB510340EA5C00B3EB910F24BF45
:100F4000A3EB910340EA9C00B3EBD10F24BFA3EBCA
:100F5000D10340EADC001B0118BF5FEA1C1CE0D192
:100F6000FD2A3FF650AF8B4240EBC25008BF20F045
:100F7000010070470CF0004C4CEA50207F32C2BF99
:100F8000D2F1FF0340EAC250704740F400004FF036
:100F90000003013A37E792F0000F00F0004C02BF67
:100FA000400010F4000F013AF9D040EA0C0093F031
:100FB000000F01F0004C02BF490011F4000F013B8B
:100FC000F9D041EA0C0195E70CEAD15392EA0C0FF3
:100FD00008D142027FF47DAF93EA0C0F7FF470AF2B
:100FE000084676E793EA0C0F04D14B023FF44CAF6E
:100FF00008466EE730F0004C18BF31F0004CCAD103
:1010000030F000427FF45CAF31F000437FF43CAF3E
:101010005FE700BF80B582B000AF7860094B1A6807
:101020007B681B689A4208D101220749054802F0F3
:1010300028FE054B1A78054B1A7000BF0837BD46CD
:1010400080BD00BFA8010020EC010020100000209E
:1010500080B500AF00F0A8FC02221149114803F04E
:1010600056FB00F029F800F097F900F0BFF800F007
:101070003FF900F067F900F07BF800F0EDF801228D
:1010800009490A4802F0FDFD094802F0F9F905484E
:1010900003F0B5FA074B1B78184604F005FCF6E799
:1010A00000080140F0010020EC010020A801002010
:1010B0001C0100201000002080B594B000AF07F1A3
:1010C000280328220021184605F0ACFF07F114037D
:1010D00000221A605A609A60DA601A613B1D002291
:1010E0001A605A609A60DA600123BB624FF4803361
:1010F000FB6200233B630123BB6302237B644FF449
:101100008033BB644FF4E013FB6407F128031846F7
:1011100001F030FA0346002B01D000F0A9F90F23AB
:101120007B610223BB610023FB614FF480633B6260
:1011300000237B6207F114030221184601F09CFC96
:101140000346002B01D000F093F902237B604FF49B
:101150000043FB603B1D184601F026FE0346002BB2
:1011600001D000F085F900BF5037BD4680BD0000BA
:1011700080B584B000AF3B1D00221A605A609A60AF
:10118000184B194A1A60174B00229A60154B00221F
:101190001A73144B00221A75124B4FF46022DA6155
:1011A000104B00225A600F4B01221A610D4800F0CB
:1011B0005DFC0346002B01D000F05AF900237B6050
:1011C0000123BB600023FB603B1D1946054800F06E
:1011D00025FD0346002B01D000F04AF900BF10376F
:1011E000BD4680BD940000200024014080B500AFC2
:1011F000174B184A1A60164B4FF482725A60144B00
:1012000000229A60124B0022DA60114B00221A6110
:101210000F4B00225A610E4B4FF400729A610C4B37
:101220002022DA610A4B00221A62094B00225A621C
:10123000074B00229A62064B0A22DA62044801F048
:1012400069FE0346002B01D000F012F900BF80BDFB
:10125000C40000200030014080B586B000AF07F127
:10126000080300221A605A609A60DA603B46002246
:101270001A605A601D4B4FF080421A601B4B48F6B3
:101280009F425A60194B00229A60184BC722DA60BD
:10129000164B00221A61154B80229A61134802F006
:1012A0009FF80346002B01D000F0E2F84FF4805382
:1012B000BB6007F1080319460C4802F03BFA0346ED
:1012C000002B01D000F0D4F800233B6000237B60AA
:1012D0003B461946054802F017FC0346002B01D097
:1012E00000F0C6F800BF1837BD4680BD1C010020C5
:1012F00080B500AF114B124A1A60104B4FF4E13227
:101300005A600E4B00229A600C4B0022DA600B4BA5
:1013100000221A61094B04225A61084B00229A618B
:10132000064B0022DA61054802F05EFC0346002B02
:1013300001D000F09DF800BF80BD00BF6401002017
:101340000038014080B500AF114B124A1A60104BB3
:101350004FF4E1325A600E4B00229A600C4B00228F
:10136000DA600B4B00221A61094B0C225A61084BC0
:1013700000229A61064B0022DA61054802F034FC33
:101380000346002B01D000F073F800BF80BD00BF02
:10139000A80100200044004080B588B000AF07F1EC
:1013A000100300221A605A609A60DA602D4B9B6924
:1013B0002C4A43F0100393612A4B9B6903F01003FE
:1013C000FB60FB68274B9B69264A43F0200393612F
:1013D000244B9B6903F02003BB60BB68214B9B69D6
:1013E000204A43F0040393611E4B9B6903F00403FE
:1013F0007B607B6800224FF400511B4801F0A1F88C
:1014000000224021194801F09CF84FF400533B6141
:1014100001237B610023BB610223FB6107F1100301
:101420001946114800F0F2FE02233B6100237B6164
:101430000123BB6107F1100319460C4800F0E6FEDA
:1014400040233B6101237B610023BB610223FB61DD
:1014500007F110031946054800F0D8FE00BF2037F9
:10146000BD4680BD00100240001001400008014050
:1014700080B400AF72B600BFFEE7000080B485B054
:1014800000AF154B9B69144A43F001039361124B63
:101490009B6903F00103BB60BB680F4BDB690E4A1D
:1014A00043F08053D3610C4BDB6903F080537B60C6
:1014B0007B680A4B5B68FB60FB6823F0E063FB60C2
:1014C000FB6843F00073FB60044AFB68536000BF95
:1014D0001437BD4680BC7047001002400000014038
:1014E00080B588B000AF786007F1100300221A6061
:1014F0005A609A60DA607B681B68144A934221D173
:10150000134B9B69124A43F400739361104B9B6920
:1015100003F40073FB60FB680D4B9B690C4A43F0BE
:10152000040393610A4B9B6903F00403BB60BB682F
:1015300001233B6103237B6107F110031946054832
:1015400000F064FE00BF2037BD4680BD002401408E
:10155000001002400008014080B588B000AF7860FC
:1015600007F1100300221A605A609A60DA607B6803
:101570001B68154A934223D1144B9B69134A43F4C9
:1015800080539361114B9B6903F48053FB60FB68AC
:101590000E4B9B690D4A43F0040393610B4B9B690F
:1015A00003F00403BB60BB68A0233B6102237B61A3
:1015B0000323FB6107F110031946054800F026FEDE
:1015C00000BF2037BD4680BD003001400010024002
:1015D0000008014080B584B000AF78607B681B686C
:1015E000B3F1804F13D10C4BDB690B4A43F001037D
:1015F000D361094BDB6903F00103FB60FB68002248
:1016000002211C2000F01BFD1C2000F034FD00BF57
:101610001037BD4680BD00BF0010024080B58AB0C3
:1016200000AF786007F1180300221A605A609A60D0
:10163000DA607B681B683F4A93423AD13E4B9B6914
:101640003D4A43F4804393613B4B9B6903F48043E1
:101650007B617B69384B9B69374A43F00403936194
:10166000354B9B6903F004033B613B694FF4007306
:10167000BB610223FB6103237B6207F11803194658
:101680002E4800F0C3FD4FF48063BB610023FB6173
:1016900000233B6207F118031946284800F0B6FD05
:1016A00000220021252000F0CAFC252000F0E3FCE8
:1016B0003CE07B681B68224A934237D11E4BDB69B2
:1016C0001D4A43F40033D3611B4BDB6903F4003341
:1016D000FB60FB68184B9B69174A43F00403936156
:1016E000154B9B6903F00403BB60BB680423BB611B
:1016F0000223FB6103237B6207F1180319460F489D
:1017000000F084FD0823BB610023FB6100233B62E2
:1017100007F118031946094800F078FD002200215E
:10172000262000F08CFC262000F0A5FC00BF283706
:10173000BD4680BD00380140001002400008014055
:101740000044004080B400AFFEE780B400AFFEE785
:1017500080B400AFFEE780B400AFFEE780B400AF16
:10176000FEE780B400AF00BFBD4680BC704780B4C8
:1017700000AF00BFBD4680BC704780B400AF00BF63
:10178000BD4680BC704780B500AF00F053F900BF84
:1017900080BD000080B500AF024801F0C3FE00BF6D
:1017A00080BD00BF1C01002080B500AF024802F0E0
:1017B00099FA00BF80BD00BF6401002080B500AF72
:1017C000024802F08FFA00BF80BD00BFA8010020D0
:1017D00080B400AF01231846BD4680BC704780B579
:1017E00082B000AF7860396005F0F2FB0346162244
:1017F0001A604FF0FF3318460837BD4680BD80B5EC
:1018000082B000AF78604FF0FF317868FFF7E7FFF4
:10181000FEE780B586B000AFF860B9607A6000235B
:101820007B610AE0AFF300800146BB685A1CBA60D6
:10183000CAB21A707B6901337B617A697B689A420C
:10184000F0DB7B6818461837BD4680BD80B586B092
:1018500000AFF860B9607A6000237B6109E0BB6883
:101860005A1CBA601B781846AFF300807B690133BD
:101870007B617A697B689A42F1DB7B68184618378E
:10188000BD4680BD80B483B000AF78604FF0FF33B9
:1018900018460C37BD4680BC704780B483B000AF9B
:1018A000786039603B684FF400525A600023184654
:1018B0000C37BD4680BC704780B483B000AF786001
:1018C000012318460C37BD4680BC704780B485B0F4
:1018D00000AFF860B9607A60002318461437BD463F
:1018E00080BC704780B586B000AF7860144A154B55
:1018F000D31A7B617B693B61134B1B68002B02D1C0
:10190000114B124A1A60104B1A687B6813443A69EB
:101910009A4207D205F05CFB03460C221A604FF096
:10192000FF3309E0084B1B68FB60074B1A687B68B4
:101930001344054A1360FB6818461837BD4680BD3E
:10194000005000200004000008020020D002002007
:1019500080B400AF00BFBD4680BC70470C480D4945
:101960000D4A002302E0D458C4500433C4188C42FA
:10197000F9D30A4A0A4C002301E013600432A24260
:10198000FBD3FFF7E5FF05F029FBFFF761FB70478D
:10199000000000207800002038A200087800002015
:1019A000D0020020FEE7000080B500AF084B1B68A6
:1019B000074A43F010031360032000F035FB0F20AB
:1019C00000F008F8FFF75AFD0023184680BD00BF5D
:1019D0000020024080B582B000AF7860124B1A68D8
:1019E000124B1B7819464FF47A73B3FBF1F3B2FB39
:1019F000F3F3184600F04DFB0346002B01D0012302
:101A00000EE07B680F2B0AD8002279684FF0FF3078
:101A100000F015FB064A7B681360002300E00123F9
:101A200018460837BD4680BD000000200800002091
:101A30000400002080B400AF054B1B781A46054B0C
:101A40001B681344034A136000BFBD4680BC704747
:101A5000080000200C02002080B400AF024B1B687D
:101A60001846BD4680BC70470C02002080B586B089
:101A700000AF78600023FB7500233B610023BB604F
:101A80000023FB607B68002B01D10123BEE07B6853
:101A90009B68002B7B689B6A002B09D17B68002226
:101AA000DA627B68002283F824207868FFF718FD4B
:101AB000786800F0ABF90346FB757B689B6A03F01E
:101AC0001003002B40F09980FB7D002B40F09580A7
:101AD0007B689B6A23F4885323F0020343F00202DD
:101AE0007B689A627B685A687B68DB691A437B680B
:101AF0001B7B5B001343BA681343BB607B689B6826
:101B0000B3F5807F03D07B689B68012B02D14FF433
:101B1000807300E000233A6913433B617B681B7DBF
:101B2000012B19D17B681B7B002B09D17B689B693A
:101B3000013B5A033B69134343F400633B610BE0F1
:101B40007B689B6A43F020027B689A627B68DB6A51
:101B500043F001027B68DA627B681B685B6823F4F0
:101B600069417B681B683A690A435A607B681B6855
:101B70009A68284B13407A681268B9680B439360DF
:101B80007B689B68B3F5807F03D07B689B68012BE3
:101B900004D17B681B69013B1B05FB607B681B68EC
:101BA000DB6A23F470017B681B68FA680A43DA6217
:101BB0007B681B689A68184B1340BA689A420BD12D
:101BC0007B680022DA627B689B6A23F0030343F0A0
:101BD00001027B689A6218E07B689B6A23F012031B
:101BE00043F010027B689A627B68DB6A43F0010273
:101BF0007B68DA620123FB7507E07B689B6A43F030
:101C000010027B689A620123FB75FB7D184618372A
:101C1000BD4680BDFDF7E1FFFE0E1FFF80B485B01D
:101C200000AF786039600023FB730023BB607B68E2
:101C300093F82430012B01D10223DCE07B680122E0
:101C400083F824203B685B68062B1CD87B681B68E4
:101C5000596B3B685A6813469B001344053B1F228F
:101C600002FA03F3DB4319403B6818683B685A6883
:101C700013469B001344053B00FA03F27B681B6884
:101C80000A435A633CE03B685B680C2B1CD87B68BA
:101C90001B68196B3B685A6813469B001344233B2F
:101CA0001F2202FA03F3DB4319403B6818683B68C4
:101CB0005A6813469B001344233B00FA03F27B68E7
:101CC0001B680A431A631BE07B681B68D96A3B6880
:101CD0005A6813469B001344413B1F2202FA03F348
:101CE000DB4319403B6818683B685A6813469B0001
:101CF0001344413B00FA03F27B681B680A43DA6233
:101D00003B681B68092B1CD97B681B68D9683B683A
:101D10001A6813465B0013441E3B072202FA03F3C2
:101D2000DB4319403B6898683B681A6813465B00C0
:101D300013441E3B00FA03F27B681B680A43DA6017
:101D400019E07B681B6819693B681A6813465B00D9
:101D50001344072202FA03F3DB4319403B689868F7
:101D60003B681A6813465B00134400FA03F27B6871
:101D70001B680A431A613B681B68102B03D03B6841
:101D80001B68112B32D17B681B681D4A934225D1F9
:101D90007B681B689B6803F40003002B26D17B68DB
:101DA0001B689A687B681B6842F400029A603B6873
:101DB0001B68102B1AD1134B1B68134AA2FB032379
:101DC0009A0C13469B0013445B00BB6002E0BB68A7
:101DD000013BBB60BB68002BF9D107E07B689B6AC5
:101DE00043F020027B689A620123FB737B68002228
:101DF00083F82420FB7B18461437BD4680BC70470F
:101E0000002401400000002083DE1B4380B584B025
:101E100000AF78600023FB607B681B689B6803F061
:101E20000103012B2ED17B681B689A687B681B68B5
:101E300022F001029A60FFF70FFEF8601BE0FFF747
:101E40000BFE0246FB68D31A022B14D97B681B6871
:101E50009B6803F00103012B0DD17B689B6A43F063
:101E600010027B689A627B68DB6A43F001027B6840
:101E7000DA62012307E07B681B689B6803F00103BB
:101E8000012BDCD0002318461037BD4680BD000072
:101E900080B485B000AF78607B6803F00703FB6017
:101EA0000C4BDB68BB60BA684FF6FF031340BB60A6
:101EB000FB681A02BB68134343F0BF6343F400336B
:101EC000BB60044ABB68D36000BF1437BD4680BC0A
:101ED000704700BF00ED00E080B400AF044BDB684A
:101EE0001B0A03F007031846BD4680BC704700BFBD
:101EF00000ED00E080B483B000AF0346FB7197F9BA
:101F00000730002B0BDBFB7903F01F02064997F922
:101F100007305B09012000FA02F241F8232000BFDC
:101F20000C37BD4680BC704700E100E080B483B050
:101F300000AF03463960FB7197F90730002B0ADBCD
:101F40003B68DAB20C4997F907301201D2B20B4460
:101F500083F800230AE03B68DAB20849FB7903F012
:101F60000F03043B1201D2B20B441A7600BF0C37A8
:101F7000BD4680BC704700BF00E100E000ED00E01E
:101F800080B489B000AFF860B9607A60FB6803F094
:101F90000703FB61FB69C3F10703042B28BF04237C
:101FA000BB61FB690433062B02D9FB69033B00E0EC
:101FB00000237B614FF0FF32BB6902FA03F3DA437F
:101FC000BB681A407B699A404FF0FF317B6901FA88
:101FD00003F3D9437B680B40134318462437BD46AF
:101FE00080BC704780B582B000AF78607B68013BF1
:101FF000B3F1807F01D301230FE00A4A7B68013BE4
:1020000053600F214FF0FF30FFF790FF054B002288
:102010009A60044B07221A60002318460837BD4611
:1020200080BD00BF10E000E080B582B000AF7860F6
:102030007868FFF72DFF00BF0837BD4680BD80B52B
:1020400086B000AF0346B9607A60FB7300237B6102
:10205000FFF742FF78617A68B9687869FFF790FF07
:10206000024697F90F3011461846FFF75FFF00BF91
:102070001837BD4680BD80B582B000AF0346FB7106
:1020800097F907301846FFF735FF00BF0837BD4600
:1020900080BD80B582B000AF78607868FFF7A2FF9E
:1020A000034618460837BD4680BD80B485B000AFF2
:1020B00078600023FB737B6893F82130022B08D0F3
:1020C0007B6804229A637B68002283F82020012326
:1020D00020E07B681B681A687B681B6822F00E0290
:1020E0001A607B681B681A687B681B6822F0010213
:1020F0001A607B681A6C7B68DB6B012101FA02F2C3
:102100005A607B68012283F821207B68002283F8D3
:102110002020FB7B18461437BD4680BC704700006A
:1021200080B584B000AF78600023FB737B6893F8C0
:102130002130022B05D07B6804229A630123FB73B4
:1021400051E07B681B681A687B681B6822F00E02EE
:102150001A607B681B681A687B681B6822F00102A2
:102160001A607B681B68224A934229D07B681B68EF
:10217000204A934222D07B681B681F4A93421AD0A0
:102180007B681B681D4A934212D07B681B681C4AFF
:1021900093420AD07B681B681A4A934202D14FF4DB
:1021A00080130EE04FF080730BE04FF4803308E0B3
:1021B0004FF4805305E04FF4807302E0102300E0F9
:1021C0000123114A53607B68012283F821207B6838
:1021D000002283F820207B685B6B002B03D07B6898
:1021E0005B6B78689847FB7B18461037BD4680BD0F
:1021F000080002401C00024030000240440002403F
:10220000580002406C0002400000024080B48BB0D5
:1022100000AF7860396000237B6200233B6269E194
:1022200001227B6A02FA03F3FB613B681B68FA69CF
:102230001340BB61BA69FB699A4240F058813B6820
:102240005B689A4A93425ED0984A934275D8984AFE
:10225000934258D0964A93426FD8964A934252D0AE
:10226000944A934269D8944A93424CD0924A9342FA
:1022700063D8924A934246D0904A93425DD8122B3B
:102280002AD8122B59D801A252F823F007230008AC
:10229000E1220008F3220008352300083B23000850
:1022A0003B2300083B2300083B2300083B23000896
:1022B0003B2300083B2300083B2300083B23000886
:1022C0003B2300083B2300083B2300083B23000876
:1022D000E9220008FD220008794A934213D02CE03D
:1022E0003B68DB683B6229E03B68DB6804333B62A8
:1022F00024E03B68DB6808333B621FE03B68DB6837
:102300000C333B621AE03B689B68002B02D104232C
:102310003B6213E03B689B68012B05D108233B62BD
:102320007B68FA691A6109E008233B627B68FA69F5
:102330005A6103E000233B6200E000BFBB69FF2B52
:1023400001D87B6801E07B6804337B61BB69FF2BAC
:1023500002D87B6A9B0002E07B6A083B9B003B61E2
:102360007B691A680F213B6901FA03F3DB431A40CA
:10237000396A3B6901FA03F31A437B691A603B68C7
:102380005B6803F08053002B00F0B1804D4B9B69DC
:102390004C4A43F0010393614A4B9B6903F00103EC
:1023A000BB60BB68484A7B6A9B08023352F8233003
:1023B000FB607B6A03F003039B000F2202FA03F326
:1023C000DB43FA681340FB607B68404A934213D0BA
:1023D0007B683F4A93420DD07B683E4A934207D0C8
:1023E0007B683D4A934201D1032306E0042304E0C5
:1023F000022302E0012300E000237A6A02F00302D4
:1024000092009340FA681343FB602F497B6A9B0854
:102410000233FA6841F823203B685B6803F4803399
:10242000002B06D02D4B1A682C49BB6913430B6057
:1024300006E02A4B1A68BB69DB43284913400B604E
:102440003B685B6803F40033002B06D0234B5A68CB
:102450002249BB6913434B6006E0204B5A68BB69B5
:10246000DB431E4913404B603B685B6803F48013F9
:10247000002B06D0194B9A681849BB6913438B602F
:1024800006E0164B9A68BB69DB43144913408B6026
:102490003B685B6803F40013002B21D00F4BDA6814
:1024A0000E49BB691343CB6021E000BF000032102E
:1024B0000000311000002210000021100000121056
:1024C000000011100010024000000140000801400F
:1024D000000C0140001001400014014000040140C4
:1024E0000B4BDA68BB69DB4309491340CB607B6A5D
:1024F00001337B623B681A687B6A22FA03F3002B84
:102500007FF48EAE00BF00BF2C37BD4680BC704745
:102510000004014080B485B000AF78600B467B803A
:102520007B689A687B881340002B02D00123FB73E1
:1025300001E00023FB73FB7B18461437BD4680BCCB
:10254000704780B483B000AF78600B467B80134641
:102550007B707B78002B03D07A887B681A6103E05C
:102560007B881A047B681A6100BF0C37BD4680BCAB
:102570007047000080B586B000AF78607B68002BA4
:1025800001D1012372E27B681B6803F00103002B79
:1025900000F08780924B5B6803F00C03042B0CD097
:1025A0008F4B5B6803F00C03082B12D18C4B5B68DC
:1025B00003F48033B3F5803F0BD1894B1B6803F4E0
:1025C0000033002B6CD07B685B68002B68D1012343
:1025D0004CE27B685B68B3F5803F06D1804B1B689B
:1025E0007F4A43F4803313602EE07B685B68002BE6
:1025F0000CD17B4B1B687A4A23F480331360784BF1
:102600001B68774A23F4802313601DE07B685B68B6
:10261000B3F5A02F0CD1724B1B68714A43F4802391
:1026200013606F4B1B686E4A43F4803313600BE0FA
:102630006B4B1B686A4A23F480331360684B1B683A
:10264000674A23F4802313607B685B68002B13D0F8
:10265000FFF702FA386108E0FFF7FEF902463B692E
:10266000D31A642B01D9032300E25D4B1B6803F4EA
:102670000033002BF0D014E0FFF7EEF9386108E0EA
:10268000FFF7EAF902463B69D31A642B01D9032309
:10269000ECE1534B1B6803F40033002BF0D100E056
:1026A00000BF7B681B6803F00203002B63D04C4B18
:1026B0005B6803F00C03002B0BD0494B5B6803F005
:1026C0000C03082B1CD1464B5B6803F48033002BB2
:1026D00016D1434B1B6803F00203002B05D07B6827
:1026E0001B69012B01D00123C0E13D4B1B6823F086
:1026F000F8027B685B69DB00394913430B603AE001
:102700007B681B69002B20D0364B01221A60FFF733
:10271000A3F9386108E0FFF79FF902463B69D31A35
:10272000022B01D90323A1E12D4B1B6803F0020307
:10273000002BF0D02A4B1B6823F0F8027B685B6902
:10274000DB00274913430B6015E0264B00221A607B
:10275000FFF782F9386108E0FFF77EF902463B692E
:10276000D31A022B01D9032380E11D4B1B6803F010
:102770000203002BF0D17B681B6803F00803002BD9
:102780003AD07B689B69002B19D0174B01221A6045
:10279000FFF762F9386108E0FFF75EF902463B692E
:1027A000D31A022B01D9032360E10D4B5B6A03F0BE
:1027B0000203002BF0D0012000F0D8FA1CE00A4BF5
:1027C00000221A60FFF748F938610FE0FFF744F97B
:1027D00002463B69D31A022B08D9032346E100BF06
:1027E000001002400000424280044242924B5B6A69
:1027F00003F00203002BE9D17B681B6803F004039C
:10280000002B00F0A6800023FB758B4BDB6903F0E7
:102810008053002B0DD1884BDB69874A43F08053EE
:10282000D361854BDB6903F08053BB60BB68012338
:10283000FB75824B1B6803F48073002B18D17F4B10
:102840001B687E4A43F480731360FFF705F9386113
:1028500008E0FFF701F902463B69D31A642B01D95E
:10286000032303E1754B1B6803F48073002BF0D046
:102870007B68DB68012B06D16F4B1B6A6E4A43F005
:10288000010313622DE07B68DB68002B0CD16A4BDF
:102890001B6A694A23F001031362674B1B6A664A8D
:1028A00023F0040313621CE07B68DB68052B0CD16A
:1028B000614B1B6A604A43F0040313625E4B1B6A60
:1028C0005D4A43F0010313620BE05B4B1B6A5A4AFB
:1028D00023F001031362584B1B6A574A23F0040389
:1028E00013627B68DB68002B15D0FFF7B5F8386101
:1028F0000AE0FFF7B1F802463B69D31A41F2883289
:10290000934201D90323B1E04B4B1B6A03F002034E
:10291000002BEED014E0FFF79FF838610AE0FFF7D4
:102920009BF802463B69D31A41F28832934201D99F
:1029300003239BE0404B1B6A03F00203002BEED104
:10294000FB7D012B05D13C4BDB693B4A23F08053D7
:10295000D3617B68DB69002B00F08780364B5B68B6
:1029600003F00C03082B61D07B68DB69022B46D196
:10297000334B00221A60FFF76FF8386108E0FFF769
:102980006BF802463B69D31A022B01D903236DE091
:10299000294B1B6803F00073002BF0D17B681B6A86
:1029A000B3F5803F08D1244B5B6823F400327B6889
:1029B0009B68214913434B601F4B5B6823F47412DF
:1029C0007B68196A7B685B6A0B431B4913434B6046
:1029D0001B4B01221A60FFF73FF8386108E0FFF750
:1029E0003BF802463B69D31A022B01D903233DE091
:1029F000114B1B6803F00073002BF0D035E0104B37
:102A000000221A60FFF728F8386108E0FFF724F881
:102A100002463B69D31A022B01D9032326E0064B59
:102A20001B6803F00073002BF0D11EE07B68DB69AC
:102A3000012B07D1012319E0001002400070004073
:102A4000600042420B4B5B68FB60FB6803F4803222
:102A50007B681B6A9A4206D1FB6803F470127B689C
:102A60005B6A9A4201D0012300E000231846183720
:102A7000BD4680BD0010024080B584B000AF7860D4
:102A800039607B68002B01D10123D0E06A4B1B68C1
:102A900003F007033A689A4210D9674B1B6823F08A
:102AA000070265493B6813430B60634B1B6803F0E7
:102AB00007033A689A4201D00123B8E07B681B689B
:102AC00003F00203002B20D07B681B6803F0040393
:102AD000002B05D0594B5B68584A43F4E0635360C0
:102AE0007B681B6803F00803002B05D0534B5B6821
:102AF000524A43F460535360504B5B6823F0F0023A
:102B00007B689B684D4913434B607B681B6803F0EF
:102B10000103002B40D07B685B68012B07D1474B3A
:102B20001B6803F40033002B15D101237FE07B6881
:102B30005B68022B07D1414B1B6803F00073002B2D
:102B400009D1012373E03D4B1B6803F00203002B06
:102B500001D101236BE0394B5B6823F003027B68F2
:102B60005B68364913434B60FEF776FFF8600AE076
:102B7000FEF772FF0246FB68D31A41F28832934295
:102B800001D9032353E02D4B5B6803F00C027B68F3
:102B90005B689B009A42EBD1274B1B6803F007034D
:102BA0003A689A4210D2244B1B6823F0070222494C
:102BB0003B6813430B60204B1B6803F007033A6824
:102BC0009A4201D0012332E07B681B6803F00403C2
:102BD000002B08D0194B5B6823F4E0627B68DB684C
:102BE000164913434B607B681B6803F00803002BF6
:102BF00009D0124B5B6823F460527B681B69DB00D1
:102C00000E4913434B6000F021F802460B4B5B6802
:102C10001B0903F00F030A49CB5C22FA03F3094AAC
:102C20001360094B1B681846FEF7D4FE00231846B4
:102C30001037BD4680BD00BF00200240001002409A
:102C4000C89E0008000000200400002090B48AB054
:102C500000AF294B3C1D0FCB84E80F0040F201234D
:102C60003B800023FB610023BB6100237B620023C8
:102C70007B6100233B62214B5B68FB61FB6903F0D6
:102C80000C03042B02D0082B03D02BE01C4B3B621F
:102C90002BE0FB699B0C03F00F0328333B4413F834
:102CA000243C7B61FB6903F48033002B12D0134B6F
:102CB0005B685B0C03F0010328333B4413F8283CAA
:102CC000BB617B690E4A03FB02F2BB69B2FBF3F303
:102CD0007B6204E07B690B4A02FB03F37B627B6A45
:102CE0003B6202E0064B3B6200BF3B6A1846283756
:102CF000BD4690BC704700BFB09E00080010024067
:102D000000127A0000093D0080B400AF024B1B683E
:102D10001846BD4680BC70470000002080B500AF5B
:102D2000FFF7F2FF0246054B5B681B0A03F007033F
:102D30000349CB5C22FA03F3184680BD0010024021
:102D4000D89E000880B500AFFFF7DEFF0246054BB6
:102D50005B68DB0A03F007030349CB5C22FA03F349
:102D6000184680BD00100240D89E000880B485B08F
:102D700000AF78600A4B1B680A4AA2FB03235B0A78
:102D80007A6802FB03F3FB6000BFFB685A1EFA601F
:102D9000002BF9D100BF00BF1437BD4680BC70477F
:102DA00000000020D34D621080B586B000AF78607F
:102DB00000233B610023FB607B681B6803F0010379
:102DC000002B7DD00023FB754F4BDB6903F0805354
:102DD000002B0DD14C4BDB694B4A43F08053D36140
:102DE000494BDB6903F08053BB60BB680123FB7573
:102DF000464B1B6803F48073002B18D1434B1B68B0
:102E0000424A43F480731360FEF726FE386108E0FF
:102E1000FEF722FE02463B69D31A642B01D9032335
:102E20006DE03A4B1B6803F48073002BF0D0364BF7
:102E30001B6A03F44073FB60FB68002B2ED07B6899
:102E40005B6803F44073FA689A4227D02E4B1B6AE2
:102E500023F44073FB602E4B01221A602C4B00229E
:102E60001A60294AFB681362FB6803F00103002B18
:102E700014D0FEF7F1FD38610AE0FEF7EDFD0246E1
:102E80003B69D31A41F28832934201D9032336E0D9
:102E90001D4B1B6A03F00203002BEED01A4B1B6A7A
:102EA00023F440727B685B68174913430B62FB7D18
:102EB000012B05D1144BDB69134A23F08053D361F6
:102EC0007B681B6803F00203002B08D00E4B5B6885
:102ED00023F440427B689B680B4913434B607B683B
:102EE0001B6803F01003002B08D0074B5B6823F42A
:102EF00080027B68DB68044913434B60002318465B
:102F00001837BD4680BD00BF001002400070004071
:102F10004004424280B582B000AF78607B68002BED
:102F200001D1012376E07B685B6A002B08D17B68C6
:102F30005B68B3F5827F09D07B680022DA6105E027
:102F40007B6800221A617B6800225A617B6800223C
:102F50009A627B6893F85130DBB2002B06D17B6814
:102F6000002283F850207868FEF7F6FA7B68022288
:102F700083F851207B681B681A687B681B6822F005
:102F800040021A607B685B6803F482727B689B680E
:102F900003F404431A437B68DB6803F400631A43B9
:102FA0007B681B6903F002031A437B685B6903F0CB
:102FB00001031A437B689B6903F400731A437B681F
:102FC000DB6903F038031A437B681B6A03F0800354
:102FD00042EA03017B689B6A03F400527B681B682A
:102FE0000A431A607B689B691A0C7B681B6802F0B5
:102FF00004025A607B681B68DA697B681B6822F4EC
:103000000062DA617B6800225A657B68012283F8DE
:103010005120002318460837BD4680BD80B588B0D2
:1030200000AFF860B9603B601346FB800023FB777C
:10303000FB6893F85030012B01D1022326E1FB6895
:10304000012283F85020FEF707FDB861FB88FB8260
:10305000FB6893F85130DBB2012B02D00223FB77DF
:103060000BE1BB68002B02D0FB88002B02D10123AF
:10307000FB7702E1FB68032283F85120FB68002202
:103080005A65FB68BA681A63FB68FA889A86FB6817
:10309000FA88DA86FB6800229A63FB6800229A8726
:1030A000FB680022DA87FB6800225A64FB68002272
:1030B0001A64FB689B68B3F5004F0FD1FB681B686F
:1030C0001A68FB681B6822F040021A60FB681B68E4
:1030D0001A68FB681B6842F480421A60FB681B6830
:1030E0001B6803F04003402B07D0FB681B681A687D
:1030F000FB681B6842F040021A60FB68DB68B3F5AE
:10310000006F4BD1FB685B68002B02D0FB8A012B60
:103110003ED1FB681B6B1A88FB681B68DA60FB6892
:103120001B6B9A1CFB681A63FB68DB8E9BB2013B2E
:103130009AB2FB68DA862BE0FB681B689B6803F099
:103140000203022B12D1FB681B6B1A88FB681B68F9
:10315000DA60FB681B6B9A1CFB681A63FB68DB8EEA
:103160009BB2013B9AB2FB68DA8611E0FEF774FC71
:103170000246BB69D31A3A689A4203D83B68B3F156
:10318000FF3F02D13B68002B02D10323FB7774E0A1
:10319000FB68DB8E9BB2002BCED14CE0FB685B68FA
:1031A000002B02D0FB8A012B40D1FB681A6BFB6815
:1031B0001B680C3312781A70FB681B6B5A1CFB6877
:1031C0001A63FB68DB8E9BB2013B9AB2FB68DA861E
:1031D0002CE0FB681B689B6803F00203022B13D1F1
:1031E000FB681A6BFB681B680C3312781A70FB685B
:1031F0001B6B5A1CFB681A63FB68DB8E9BB2013B9E
:103200009AB2FB68DA8611E0FEF726FC0246BB693B
:10321000D31A3A689A4203D83B68B3F1FF3F02D110
:103220003B68002B02D10323FB7726E0FB68DB8E93
:103230009BB2002BCDD1BA693968F86800F0B2F8BA
:103240000346002B02D0FB6820225A65FB689B686E
:10325000002B0AD100233B61FB681B68DB683B61E4
:10326000FB681B689B683B613B69FB685B6D002BDF
:1032700002D00123FB7700E000BFFB68012283F846
:103280005120FB68002283F85020FB7F184620372E
:10329000BD4680BD80B588B000AFF860B9603B60C6
:1032A0001346FB71FEF7D8FB0246BB6A9B1A3A68CD
:1032B0001344FB61FEF7D0FBB861394B1B685B011F
:1032C0001B0DFA6902FB03F37B6154E03B68B3F129
:1032D000FF3F50D0FEF7C0FB0246BB69D31AFA6924
:1032E0009A4202D9FB69002B3DD1FB681B685A68E2
:1032F000FB681B6822F0E0025A60FB685B68B3F56C
:10330000827F11D1FB689B68B3F5004F04D0FB6846
:103310009B68B3F5806F07D1FB681B681A68FB6870
:103320001B6822F040021A60FB689B6AB3F5005FDD
:103330000FD1FB681B681A68FB681B6822F40052F7
:103340001A60FB681B681A68FB681B6842F400522D
:103350001A60FB68012283F85120FB68002283F881
:103360005020032317E07B69002B01D10023FB6170
:103370007B69013B7B61FB681B689A68BB681340F3
:10338000BA689A420CBF01230023DBB21A46FB79CC
:103390009A429BD1002318462037BD4680BD00BF0E
:1033A0000000002080B586B002AFF860B9607A6096
:1033B0007B680093BB6800228021F868FFF76AFFF2
:1033C0000346002B07D0FB685B6D43F02002FB68CF
:1033D0005A65032300E0002318461037BD4680BD20
:1033E00080B582B000AF78607B68002B01D10123EB
:1033F00041E07B6893F83D30DBB2002B06D17B685F
:10340000002283F83C207868FEF7E4F87B6802220B
:1034100083F83D207B681A687B68043319461046A0
:1034200000F07AFA7B68012283F846207B6801224B
:1034300083F83E207B68012283F83F207B680122CD
:1034400083F840207B68012283F841207B680122B9
:1034500083F842207B68012283F843207B680122A5
:1034600083F844207B68012283F845207B68012291
:1034700083F83D20002318460837BD4680BD000074
:1034800080B485B000AF78607B6893F83D30DBB2E4
:10349000012B01D001233AE07B68022283F83D2012
:1034A0007B681B68DA687B681B6842F00102DA609F
:1034B0007B681B68184A93420ED07B681B68B3F187
:1034C000804F09D07B681B68144A934204D07B6804
:1034D0001B68134A934211D17B681B689B6803F0F9
:1034E0000703FB60FB68062B10D07B681B681A681B
:1034F0007B681B6842F001021A6007E07B681B686A
:103500001A687B681B6842F001021A6000231846A3
:103510001437BD4680BC7047002C014000040040B9
:103520000008004080B582B000AF78607B681B68FF
:103530001B6903F00203022B22D17B681B68DB6846
:1035400003F00203022B1BD17B681B686FF00202A1
:103550001A617B6801221A777B681B689B6903F0FC
:103560000303002B03D0786800F0BAF905E078680F
:1035700000F0ADF9786800F0BCF97B6800221A779A
:103580007B681B681B6903F00403042B22D17B6852
:103590001B68DB6803F00403042B1BD17B681B68EA
:1035A0006FF004021A617B6802221A777B681B683D
:1035B0009B6903F44073002B03D0786800F090F906
:1035C00005E0786800F083F9786800F092F97B688C
:1035D00000221A777B681B681B6903F00803082B1D
:1035E00022D17B681B68DB6803F00803082B1BD122
:1035F0007B681B686FF008021A617B6804221A77E7
:103600007B681B68DB6903F00303002B03D0786839
:1036100000F066F905E0786800F059F9786800F084
:1036200068F97B6800221A777B681B681B6903F0C6
:103630001003102B22D17B681B68DB6803F010039A
:10364000102B1BD17B681B686FF010021A617B681E
:1036500008221A777B681B68DB6903F44073002B30
:1036600003D0786800F03CF905E0786800F02FF9A5
:10367000786800F03EF97B6800221A777B681B6847
:103680001B6903F00103012B0ED17B681B68DB680B
:1036900003F00103012B07D17B681B686FF0010267
:1036A0001A61786800F00AF97B681B681B6903F0EF
:1036B0008003802B0ED17B681B68DB6803F08003DE
:1036C000802B07D17B681B686FF080021A617868D5
:1036D00000F081FA7B681B681B6903F04003402BF4
:1036E0000ED17B681B68DB6803F04003402B07D1D9
:1036F0007B681B686FF040021A61786800F002F97D
:103700007B681B681B6903F02003202B0ED17B68AC
:103710001B68DB6803F02003202B07D17B681B6844
:103720006FF020021A61786800F04CFA00BF083789
:10373000BD4680BD80B584B000AF786039607B68DD
:1037400093F83C30012B01D10223B3E07B680122C6
:1037500083F83C207B68022283F83D207B681B684D
:103760009B68FB60FB6823F07703FB60FB6823F436
:103770007F43FB607B681B68FA689A603B681B6844
:10378000B3F5005F3ED0B3F5005F00F28780B3F57C
:10379000805F00F08580B3F5805F7FD8702B1AD0F2
:1037A000702B7BD8602B50D0602B77D8502B3CD01F
:1037B000502B73D8402B58D0402B6FD8302B64D06F
:1037C000302B6BD8202B60D0202B67D8002B5CD0FF
:1037D000102B5AD062E07B6818683B6899683B6898
:1037E0005A683B68DB6800F070F97B681B689B686F
:1037F000FB60FB6843F07703FB607B681B68FA683B
:103800009A604EE07B6818683B6899683B685A6824
:103810003B68DB6800F059F97B681B689A687B6835
:103820001B6842F480429A603BE07B6818683B6802
:1038300059683B68DB681A4600F0D0F87B681B6863
:103840005021184600F027F92BE07B6818683B6888
:1038500059683B68DB681A4600F0EEF87B681B6825
:103860006021184600F017F91BE07B6818683B6878
:1038700059683B68DB681A4600F0B0F87B681B6843
:103880004021184600F007F90BE07B681A683B6896
:103890001B681946104600F0FEF802E000BF00E089
:1038A00000BF7B68012283F83D207B68002283F8FB
:1038B0003C20002318461037BD4680BD80B483B03D
:1038C00000AF786000BF0C37BD4680BC704780B445
:1038D00083B000AF786000BF0C37BD4680BC704736
:1038E00080B483B000AF786000BF0C37BD4680BCA9
:1038F000704780B483B000AF786000BF0C37BD461E
:1039000080BC704780B483B000AF786000BF0C37D4
:10391000BD4680BC7047000080B485B000AF7860C1
:1039200039607B681B68FB607B68294A93420BD037
:103930007B68B3F1804F07D07B68264A934203D05F
:103940007B68254A934208D1FB6823F07003FB6033
:103950003B685B68FA681343FB607B681C4A9342D0
:103960000BD07B68B3F1804F07D07B68194A934234
:1039700003D07B68184A934208D1FB6823F4407354
:10398000FB603B68DB68FA681343FB60FB6823F06D
:1039900080023B685B691343FB607B68FA681A60CE
:1039A0003B689A687B68DA623B681A687B689A624F
:1039B0007B68074A934203D13B681A697B681A63A4
:1039C0007B6801225A6100BF1437BD4680BC704736
:1039D000002C0140000400400008004080B487B083
:1039E00000AFF860B9607A60FB681B6A7B61FB68B6
:1039F0001B6A23F00102FB681A62FB689B693B614A
:103A00003B6923F0F0033B617B681B013A69134378
:103A10003B617B6923F00A037B617A69BB681343CE
:103A20007B61FB683A699A61FB687A691A6200BF38
:103A30001C37BD4680BC704780B487B000AFF860CB
:103A4000B9607A60FB681B6A23F01002FB681A6297
:103A5000FB689B697B61FB681B6A3B617B6923F4A4
:103A600070437B617B681B037A6913437B613B690D
:103A700023F0A0033B61BB681B013A6913433B6120
:103A8000FB687A699A61FB683A691A6200BF1C3761
:103A9000BD4680BC704780B485B000AF78603960A7
:103AA0007B689B68FB60FB6823F07003FB603A68EF
:103AB000FB68134343F00703FB607B68FA689A6076
:103AC00000BF1437BD4680BC704780B487B000AFDC
:103AD000F860B9607A603B60FB689B687B617B69DA
:103AE00023F47F437B613B681A027B681A43BB68FF
:103AF00013437A6913437B61FB687A699A6000BF5C
:103B00001C37BD4680BC704780B485B000AF78607C
:103B100039607B6893F83C30012B01D1022346E0E9
:103B20007B68012283F83C207B68022283F83D20D9
:103B30007B681B685B68FB607B681B689B68BB607D
:103B4000FB6823F07003FB603B681B68FA68134353
:103B5000FB607B681B68FA685A607B681B68164AC2
:103B600093420ED07B681B68B3F1804F09D07B680D
:103B70001B68124A934204D07B681B68104A934228
:103B80000CD1BB6823F08003BB603B685B68BA68FC
:103B90001343BB607B681B68BA689A607B6801222C
:103BA00083F83D207B68002283F83C2000231846E0
:103BB0001437BD4680BC7047002C01400004004013
:103BC0000008004080B483B000AF786000BF0C37BD
:103BD000BD4680BC704780B483B000AF786000BF42
:103BE0000C37BD4680BC704780B582B000AF7860AE
:103BF0007B68002B01D101233FE07B6893F83D30C7
:103C0000DBB2002B06D17B68002283F83C20786869
:103C1000FDF704FD7B68242283F83D207B681B6848
:103C2000DA687B681B6822F40052DA60786800F07A
:103C3000A9FB7B681B681A697B681B6822F49042A9
:103C40001A617B681B685A697B681B6822F02A022C
:103C50005A617B681B68DA687B681B6842F4005213
:103C6000DA607B6800221A647B68202283F83D209A
:103C70007B68202283F83E20002318460837BD4683
:103C800080BD80B584B000AFF860B9601346FB809A
:103C9000FB6893F83E30DBB2202B1DD1BB68002BB4
:103CA00002D0FB88002B01D1012316E0FB6893F8BA
:103CB0003C30012B01D102230FE0FB68012283F885
:103CC0003C20FB6800221A63FB881A46B968F86832
:103CD00000F0CFF9034600E0022318461037BD4636
:103CE00080BD000080B58AB000AF78607B681B683B
:103CF0001B687B627B681B68DB683B627B681B68B8
:103D00005B69FB610023BB6100237B617B6A03F07D
:103D10000F03BB61BB69002B0DD17B6A03F020034D
:103D2000002B08D03B6A03F02003002B03D07868F7
:103D300000F07FFA7BE1BB69002B00F0B180FB69EA
:103D400003F00103002B05D13B6A03F49073002BB1
:103D500000F0A6807B6A03F00103002B0AD03B6AC7
:103D600003F48073002B05D07B681B6C43F00102C9
:103D70007B681A647B6A03F00403002B0AD0FB699A
:103D800003F00103002B05D07B681B6C43F002029B
:103D90007B681A647B6A03F00203002B0AD0FB697C
:103DA00003F00103002B05D07B681B6C43F0040279
:103DB0007B681A647B6A03F00803002B0FD03B6A10
:103DC00003F02003002B04D1FB6903F00103002B57
:103DD00005D07B681B6C43F008027B681A647B6823
:103DE0001B6C002B00F01E817B6A03F02003002B6C
:103DF00007D03B6A03F02003002B02D0786800F064
:103E000018FA7B681B685B6903F04003002B14BF42
:103E100001230023DBB27B617B681B6C03F008038A
:103E2000002B02D17B69002B31D0786800F05AF961
:103E30007B681B685B6903F04003002B23D07B6821
:103E40001B685A697B681B6822F040025A617B68D4
:103E50009B6B002B13D07B689B6B764A5A637B6805
:103E60009B6B1846FEF75CF90346002B16D07B6867
:103E70009B6B5B6B7A68926B104698470EE0786894
:103E800000F0E3F80AE0786800F0DFF806E0786810
:103E900000F0DBF87B6800221A64C3E000BFC1E0D9
:103EA0007B681B6B012B40F0A1807B6A03F0100341
:103EB000002B00F09B803B6A03F01003002B00F006
:103EC00095800023FB607B681B681B68FB607B6838
:103ED0001B685B68FB60FB687B681B685B6903F0C1
:103EE0004003002B4ED07B689B6B1B685B683B825A
:103EF0003B8A002B00F098807B689B8D3A8A9A421F
:103F000080F092807B683A8ADA857B689B6B9B693C
:103F1000202B2BD07B681B68DA687B681B6822F437
:103F20008072DA607B681B685A697B681B6822F0C4
:103F300001025A617B681B685A697B681B6822F022
:103F400040025A617B68202283F83E207B68002271
:103F50001A637B681B68DA687B681B6822F01002B2
:103F6000DA607B689B6B1846FEF79FF87B689A8D3A
:103F70007B68DB8D9BB2D31A9BB21946786800F040
:103F80006DF851E07B689A8D7B68DB8D9BB2D31A0C
:103F90007B827B68DB8D9BB2002B47D07B8A002B1A
:103FA00044D07B681B68DA687B681B6822F49072D7
:103FB000DA607B681B685A697B681B6822F0010223
:103FC0005A617B68202283F83E207B6800221A63B6
:103FD0007B681B68DA687B681B6822F01002DA6075
:103FE0007B8A1946786800F039F81FE07B6A03F095
:103FF0008003002B08D03B6A03F08003002B03D022
:10400000786800F0AFF812E07B6A03F04003002B01
:104010000DD03B6A03F04003002B08D0786800F015
:10402000F0F804E000BF02E000BF00E000BF283766
:10403000BD4680BD3D41000880B483B000AF7860CC
:1040400000BF0C37BD4680BC704780B483B000AF62
:10405000786000BF0C37BD4680BC704780B483B029
:1040600000AF78600B467B8000BF0C37BD4680BC3C
:10407000704780B485B000AFF860B9601346FB802C
:10408000FB68BA689A62FB68FA889A85FB68FA88C6
:10409000DA85FB6800221A64FB68222283F83E203E
:1040A000FB68002283F83C20FB681B68DA68FB6829
:1040B0001B6842F48072DA60FB681B685A69FB680F
:1040C0001B6842F001025A61FB681B68DA68FB68F2
:1040D0001B6842F02002DA60002318461437BD4600
:1040E00080BC704780B483B000AF78607B681B6889
:1040F000DA687B681B6822F49072DA607B681B6860
:104100005A697B681B6822F001025A617B681B6B4D
:10411000012B07D17B681B68DA687B681B6822F07B
:104120001002DA607B68202283F83E207B68002240
:104130001A6300BF0C37BD4680BC704780B584B0A1
:1041400000AF78607B685B6AFB60FB680022DA8501
:10415000FB680022DA84F868FFF777FF00BF1037AA
:10416000BD4680BD80B485B000AF78607B6893F8B1
:104170003D30DBB2212B3ED17B689B68B3F5805F7D
:1041800014D17B681B69002B10D17B681B6AFB6014
:10419000FB681B881A467B681B68C2F308025A60DA
:1041A0007B681B6A9A1C7B681A6208E07B681B6A42
:1041B000591C7A6811621A787B681B685A607B68A0
:1041C000DB8C9BB2013B9BB27A681946D184002BF1
:1041D0000FD17B681B68DA687B681B6822F080025D
:1041E000DA607B681B68DA687B681B6842F0400213
:1041F000DA60002300E0022318461437BD4680BC75
:10420000704780B582B000AF78607B681B68DA6861
:104210007B681B6822F04002DA607B68202283F80A
:104220003D207868FFF708FF002318460837BD4691
:1042300080BD80B586B000AF78607B6893F83E3073
:10424000DBB2222B40F099807B689B68B3F5805FDE
:1042500017D17B681B69002B13D100237B617B681E
:104260009B6A3B617B681B685B689BB2C3F3080376
:104270009AB23B691A807B689B6A9A1C7B689A6237
:1042800026E07B689B6A7B6100233B617B689B68BF
:10429000B3F5805F07D07B689B68002B0AD17B68F1
:1042A0001B69002B06D17B681B685B68DAB27B69EF
:1042B0001A7008E07B681B685B68DBB203F07F0361
:1042C000DAB27B691A707B689B6A5A1C7B689A62B7
:1042D0007B68DB8D9BB2013B9BB27A681946D18526
:1042E000002B48D17B681B68DA687B681B6822F06A
:1042F0002002DA607B681B68DA687B681B6822F43E
:104300008072DA607B681B685A697B681B6822F0E0
:1043100001025A617B68202283F83E207B681B6B78
:10432000012B23D17B6800221A637B681B68DA6843
:104330007B681B6822F01002DA607B681B681B68D0
:1043400003F01003102B0AD10023FB607B681B686D
:104350001B68FB607B681B685B68FB60FB687B68B5
:104360009B8D19467868FFF779FE02E07868FCF7C4
:1043700051FE002302E0002300E002231846183714
:10438000BD4680BD80B584B000AF78607B681B6897
:104390001B6923F440517B68DA687B681B680A4319
:1043A0001A617B689A687B681B691A437B685B6942
:1043B0001343BB607B681B68DB6823F4B05323F0B6
:1043C0000C037A681268B9680B43D3607B681B687A
:1043D0005B6923F440717B689A697B681B680A43B8
:1043E0005A617B681B682C4A934203D1FEF7AAFCF2
:1043F000F86002E0FEF792FCF860FA6813469B0052
:1044000013449A001A447B685B689B00B2FBF3F389
:10441000224AA2FB03235B091901FA6813469B0099
:1044200013449A001A447B685B689B00B2FBF3F26A
:104430001A4BA3FB02035B09642000FB03F3D31AAE
:104440001B013233154AA2FB03235B0903F0F0037F
:104450001944FA6813469B0013449A001A447B6877
:104460005B689B00B2FBF3F20C4BA3FB02035B09FE
:10447000642000FB03F3D31A1B013233074AA2FB6B
:1044800003235B0903F00F027B681B680A449A60F0
:1044900000BF1037BD4680BD003801401F85EB517D
:1044A00080B584B000AF0023FB6007E02E4AFB68B4
:1044B000134400221A70FB680133FB60FB68072B72
:1044C000F4DD2A4B00221A70294B1B78002B02D0F6
:1044D000012B22D043E0254B81221A70224BFF2270
:1044E000DA71214BDA79204B1A700123BB6007E0A7
:1044F0001D4ABB68134481221A70BB680133BB603C
:10450000BB68062BF4DD194B1B781946164802F0E0
:104510000BFC174B01221A7021E0144B7E221A70FB
:10452000114B8122DA71104BDA790F4B1A7001238B
:104530007B6007E00C4A7B68134400221A707B689A
:1045400001337B607B68062BF4DD084B1B78194632
:10455000054802F0E9FB064B00221A7000BF00BFBD
:104560001037BD4680BD00BF14020020100200209D
:104570001C02002080B483B000AF0D4B05221A70DE
:104580000C4B00221A7000237B6007E00A4A7B680C
:10459000134400221A707B6801337B607B68072B11
:1045A000F4DD00BF00BF0C37BD4680BC704700BFC4
:1045B00010000020100200201402002080B483B0FC
:1045C00000AF78600B467B8000BF0C37BD4680BCD7
:1045D000704780B483B000AF78600B467B8000BF2B
:1045E0000C37BD4680BC704780B483B000AF7860A4
:1045F0000B467B8000BF0C37BD4680BC704780B542
:1046000084B000AF78607B681A697B689B8A194622
:104610001046FDF77FFF0346FB737B689B78FA7BB0
:104620009A420AD07B68FA7B9A707B680122DA7022
:10463000FDF712FA02467B689A607B68DB78002BF4
:104640000ED0FDF709FA02467B689B68D31A0E2B41
:1046500006D97B689A787B681A707B680022DA70CA
:104660007B681A787B685B789A4234D07B681B78C9
:10467000002B10D17B6801221A717B681A697B6854
:104680009B8A1946104601F0C1F8FDF7E5F902468C
:104690007B68DA601BE0FDF7DFF902467B68DB68C8
:1046A000D31AB3F57A7F07D87B681A697B689B8A2F
:1046B00019461046FFF782FF7B681A697B689B8A60
:1046C00019461046FFF785FF7B6800221A717B6848
:1046D0001A787B685A707B681B79002B13D0FDF722
:1046E000BBF902467B68DB68D31AB3F5FA6F0AD3CD
:1046F0007B681A697B689B8A19461046FFF774FF2E
:104700007B6800221A7100BF1037BD4680BD80B49F
:1047100085B000AFF860B9601346FB80FB68BA68EB
:104720001A61FB68FA889A8200BF1437BD4680BCC4
:10473000704780B584B000AF0023FB720023FB609C
:1047400007E03A46FB68134400221A70FB68013305
:10475000FB60FB68072BF4DDFA7A3B4611461846EE
:1047600002F0E2FA00BF1037BD4680BD80B500AF51
:104770008B4B1B78092B00F29D8201A252F823F08B
:10478000374C0008B94B00082B4B0008AD4A000815
:104790002F4A0008B149000823490008A54800082D
:1047A00027480008A9470008FDF756F902467D4B47
:1047B0001B68D31A462293422FD37B4B1B68012BD5
:1047C00008D17A4B1B68072B04DC784B1B6801333C
:1047D000764A1360754B1B68072B02DD724B002273
:1047E0001A60714B1B68002B08D1704B1B68002BA3
:1047F00004DD6E4B1B68013B6C4A13606B4B1B68FE
:10480000002B05D1684B01221A60654B08221A70F3
:10481000FDF722F90346634A1360644B1B68184690
:1048200000F07CFA47E2FDF717F902465D4B1B6882
:10483000D31A462293422FD35B4B1B68012B08D11E
:104840005A4B1B68072B04DC584B1B680133574A33
:104850001360564B1B68072B02DD534B00221A6076
:10486000514B1B68002B08D1504B1B68002B04DDFB
:104870004E4B1B68013B4D4A13604C4B1B68002B91
:1048800005D1494B01221A60454B07221A70FDF7EA
:10489000E3F80346434A1360444B1B68184600F094
:1048A00079FA08E2FDF7D8F802463E4B1B68D31AA6
:1048B000462293422FD33C4B1B68012B08D13B4B24
:1048C0001B68072B04DC394B1B680133374A136024
:1048D000364B1B68072B02DD334B00221A60324B2C
:1048E0001B68002B08D1314B1B68002B04DD2F4BBC
:1048F0001B68013B2D4A13602C4B1B68002B05D114
:10490000294B01221A60264B06221A70FDF7A4F8E3
:104910000346244A1360254B1B68184600F05CFAD6
:10492000C9E1FDF799F802461E4B1B68D31A4622CF
:1049300093422FD31C4B1B68012B08D11B4B1B68C8
:10494000072B04DC194B1B680133184A1360174B03
:104950001B68072B02DD144B00221A60124B1B68E8
:10496000002B08D1114B1B68002B04DD0F4B1B687B
:10497000013B0E4A13600D4B1B68002B05D10A4BFF
:1049800001221A60064B05221A70FDF765F80346EE
:10499000044A1360054B1B68184600F051FA8AE17F
:1049A00009000020280200200C0000202C0200201A
:1049B000FDF752F802467C4B1B68D31A46229342FD
:1049C0002FD37A4B1B68012B08D1794B1B68072B1F
:1049D00004DC774B1B680133754A1360744B1B680A
:1049E000072B02DD714B00221A60704B1B68002BF5
:1049F00008D16F4B1B68002B04DD6D4B1B68013B1E
:104A00006B4A13606A4B1B68002B05D1674B012270
:104A10001A60684B04221A70FDF71EF80346624ABA
:104A20001360634B1B68184600F050FA43E1FDF732
:104A300013F802465C4B1B68D31A462293422FD3CD
:104A40005A4B1B68012B08D1594B1B68072B04DC00
:104A5000574B1B680133564A1360554B1B68072B95
:104A600002DD524B00221A60504B1B68002B08D10C
:104A70004F4B1B68002B04DD4D4B1B68013B4C4A20
:104A800013604B4B1B68002B05D1484B01221A6069
:104A9000484B03221A70FCF7DFFF0346424A1360BB
:104AA000434B1B68184600F057FA04E1FCF7D4FFAB
:104AB00002463D4B1B68D31A462293422FD33B4BF1
:104AC0001B68012B08D13A4B1B68072B04DC384BC1
:104AD0001B680133364A1360354B1B68072B02DD18
:104AE000324B00221A60314B1B68002B08D1304B2F
:104AF0001B68002B04DD2E4B1B68013B2C4A136006
:104B00002B4B1B68002B05D1284B01221A60294B27
:104B100002221A70FCF7A0FF0346234A1360244BBD
:104B20001B68184600F05CFAC5E0FCF795FF0246EA
:104B30001D4B1B68D31A462293422FD31B4B1B6875
:104B4000012B08D11A4B1B68072B04DC184B1B6880
:104B50000133174A1360164B1B68072B02DD134BFA
:104B600000221A60114B1B68002B08D1104B1B68E8
:104B7000002B04DD0E4B1B68013B0D4A13600C4BF0
:104B80001B68002B05D1094B01221A60094B012239
:104B90001A70FCF761FF0346034A1360044B1B685D
:104BA000184600F051FA86E0280200200C00002090
:104BB0002C02002009000020FCF74EFF02463F4B6C
:104BC0001B68D31A462293422FD33D4B1B68012BFF
:104BD00008D13C4B1B68072B04DC3A4B1B680133A4
:104BE000384A1360374B1B68072B02DD344B002219
:104BF0001A60334B1B68002B08D1324B1B68002B0B
:104C000004DD304B1B68013B2E4A13602D4B1B68A3
:104C1000002B05D12A4B01221A602B4B00221A705F
:104C2000FCF71AFF0346254A1360264B1B681846FB
:104C300000F058FA3FE0FCF70FFF02461F4B1B68DD
:104C4000D31A462293422FD31D4B1B68012B08D148
:104C50001C4B1B68072B04DC1A4B1B680133194AD9
:104C60001360184B1B68072B02DD154B00221A60DE
:104C7000134B1B68002B08D1124B1B68002B04DD63
:104C8000104B1B68013B0F4A13600E4B1B68002B37
:104C900005D10B4B01221A600B4B09221A70FCF74D
:104CA000DBFE0346054A1360064B1B68184600F0FE
:104CB0005FFA00E000BF00BF80BD00BF28020020F7
:104CC0000C0000202C0200200900002080B483B0DA
:104CD00000AF0E4B06221A700D4B09221A700D4BB5
:104CE00001221A6000237B6007E00B4A7B681344B3
:104CF00000221A707B6801337B607B68072BF4DD30
:104D000000BF00BF0C37BD4680BC704710000020BC
:104D1000090000200C0000202002002080B582B095
:104D200000AF78601A4A7B6813447E221A70812192
:104D3000174801F0F9FF164A7B681344C3221A7022
:104D40006021134801F0F0FF114A7B6813440322ED
:104D50001A700C210E4801F0E7FF0D4A7B681344DE
:104D6000FF221A7002210A4801F0DEFF084A7B6820
:104D700013447F221A701021054801F0D5FF044A20
:104D80007B68134400221A7000BF0837BD4680BDFF
:104D90002002002080B582B000AF78600D4A7B68A9
:104DA0001344C3221A7066210A4801F0BDFF094A64
:104DB0007B6813447E221A709921064801F0B4FFE3
:104DC000044A7B68134400221A7000BF0837BD46AE
:104DD00080BD00BF2002002080B584B000AF7860A5
:104DE000164A7B681344FF221A70C021134801F051
:104DF0009BFF0023FB6015E00322FB6802FA03F32C
:104E0000D9B20E4A7B6813440A461A702022FB6806
:104E100042FA03F3DBB21946084801F085FFFB684C
:104E20000133FB60FB68052BE6DD044A7B68134415
:104E300000221A7000BF1037BD4680BD200200203E
:104E400080B582B000AF78601F4A7B681344FF22B0
:104E50001A7042211C4801F067FF1B4A7B6813440B
:104E6000C3221A700C21184801F05EFF164A7B68B5
:104E700013447F221A708021134801F055FF124A13
:104E80007B681344C0221A7020210F4801F04CFFA8
:104E90000D4A7B681344FE221A7010210A4801F063
:104EA00043FF094A7B6813447E221A700121064899
:104EB00001F03AFF044A7B68134400221A7000BFD5
:104EC0000837BD4680BD00BF2002002080B582B0FB
:104ED00000AF78601F4A7B681344FF221A70C0211C
:104EE0001C4801F021FF1B4A7B681344C0221A7042
:104EF0002021184801F018FF164A7B681344FE224F
:104F00001A701021134801F00FFF124A7B681344F6
:104F100003221A700C210F4801F006FF0D4A7B682E
:104F2000134483221A7002210A4801F0FDFE094A47
:104F30007B6813447E221A700121064801F0F4FEBA
:104F4000044A7B68134400221A7000BF0837BD462C
:104F500080BD00BF2002002080B584B000AF786023
:104F60001D4A7B68134406221A70F3211A4801F087
:104F7000DBFE194A7B681344FF221A700C21164885
:104F800001F0D2FE0023FB6019E00822FB6802FA60
:104F900003F3D9B2104A7B6813440A461A70802280
:104FA000FB6842FA03F3DAB20C4B1A700B4B1B7816
:104FB0001946094801F0B8FEFB680133FB60FB6845
:104FC000032BE2DD044A7B68134400221A7000BF01
:104FD0001037BD4680BD00BF200200201D0200200A
:104FE00080B582B000AF7860164A7B6813447E2299
:104FF0001A708121134801F097FE124A7B6813440E
:10500000E7221A7042210F4801F08EFE0D4A7B689C
:105010001344C3221A7024210A4801F085FE094A6C
:105020007B68134406221A701821064801F07CFEA2
:10503000044A7B68134400221A7000BF0837BD463B
:1050400080BD00BF2002002080B582B000AF786034
:10505000234A7B6813447E221A708021204801F085
:1050600063FE1F4A7B681344C3221A7040211C4808
:1050700001F05AFE1A4A7B68134483221A702021D9
:10508000174801F051FE164A7B6813440E221A702D
:105090001021134801F048FE114A7B6813441C227A
:1050A0001A7008210E4801F03FFE0D4A7B68134438
:1050B00070221A7004210A4801F036FE084A7B6803
:1050C0001344FF221A700321054801F02DFE044A03
:1050D0007B68134400221A7000BF0837BD4680BDAC
:1050E0002002002080B582B000AF78601F4A7B6844
:1050F0001344FF221A7001211C4801F015FE1B4ABF
:105100007B68134498221A700821184801F00CFE9D
:10511000164A7B681344D8221A701021134801F0F4
:1051200003FE124A7B68134478221A7020210F482C
:1051300001F0FAFD0D4A7B68134438221A704021B1
:105140000A4801F0F1FD094A7B68134418221A70DD
:105150008621064801F0E8FD044A7B6813440022DA
:105160001A7000BF0837BD4680BD00BF2002002076
:1051700080B582B000AF7860114A7B6813443C224E
:105180001A7081210E4801F0CFFD0D4A7B6813444F
:1051900066221A7042210A4801F0C6FD084A7B685F
:1051A0001344C3221A703C21054801F0BDFD044A96
:1051B0007B68134400221A7000BF0837BD4680BDCB
:1051C0002002002080B588B000AF7E4B1B78032BF7
:1051D00000F2EA8001A252F823F000BFED5100086E
:1051E0005D520008CD5200083B530008FCF734FC28
:1051F0000246754B1B68D31A96229342C0F0D680A4
:10520000724B18221A700323FB6107E0704AFB6996
:10521000134418221A70FB690133FB61FB69042BEC
:10522000F4DD6A4B1B781946694801F07DFD0023C7
:10523000BB6107E0664ABB69134400221A70BB6970
:105240000133BB61BB69072BF4DD5E4B01221A7091
:10525000FCF702FC03465C4A1360A7E0FCF7FCFB8A
:105260000246594B1B68D31A96229342C0F0A08085
:10527000564B24221A7002237B6107E0544A7B6953
:1052800013443C221A707B6901337B617B69052BD7
:10529000F4DD4E4B1B7819464D4801F045FD0023C7
:1052A0003B6107E04A4A3B69134400221A703B699C
:1052B00001333B613B69072BF4DD424B02221A703C
:1052C000FCF7CAFB0346404A136071E0FCF7C4FBDD
:1052D00002463D4B1B68D31A962293426AD33B4B3E
:1052E00042221A700123FB6007E0394AFB6813442D
:1052F0007E221A70FB680133FB60FB68062BF4DD2D
:10530000324B1B781946324801F00EFD0023BB607A
:1053100007E02F4ABB68134400221A70BB680133B0
:10532000BB60BB68072BF4DD264B03221A70FCF729
:1053300093FB0346244A13603CE0FCF78DFB0246D6
:10534000214B1B68D31A9622934235D31F4B8122DF
:105350001A7000237B6007E01D4A7B681344FF221C
:105360001A707B6801337B607B68072BF4DD174B79
:105370001B781946164801F0D7FC00233B6007E074
:10538000134A3B68134400221A703B6801333B60A8
:105390003B68072BF4DD0B4B00221A70FCF75CFB1B
:1053A0000346094A136007E000BF06E000BF04E0BF
:1053B00000BF02E000BF00E000BF00BF2037BD46D5
:1053C00080BD00BF300200203C02002031020020DE
:1053D0003402002080B483B000AF0E4B04221A7058
:1053E00000237B6007E00C4A7B68134400221A709C
:1053F0007B6801337B607B68072BF4DD074B002261
:105400001A70074B03221A7000BF0C37BD4680BCD0
:10541000704700BF1000002034020020310200203D
:105420003002002080B584B000AF0346FB710B460C
:10543000BB7113467B717B799A01BB79DB001A44FF
:10544000FB791344DB10DAB2344B1A707B799B0181
:10545000DAB2BB79DB00DBB21344DAB2FB79134476
:10546000DAB22E4B1B78DB00DBB2D31ADAB22C4B4C
:105470001A702A4B1A787B79DB00DBB2D31ADAB2C6
:10548000284B1A707B79082B03D1274BFF221A7007
:1054900006E07B79012202FA03F3DAB2224B1A709A
:1054A0001F4B1B781A46012303FA02F11D4B1B7890
:1054B0001A46C9B21D4B99541B4B1A781C4B1A70D3
:1054C0000123FB7309E0FB7B5A1EFB7B1749895CB8
:1054D000174AD154FB7B0133FB73FB7B082BF2D9BA
:1054E000002240211348FDF72CF8642309221049BB
:1054F0001148FDF793FD012240210E48FDF721F8E8
:10550000094B00221A70074B1B781A46074B0021E3
:10551000995400BF1037BD4680BD00BF490200202E
:105520004A0200204B0200204802002040020020D6
:105530004C02002000080140C400002080B586B065
:1055400000AF934BFF22DA71914BDA79904B9A714D
:105550008F4B9A798E4B5A718D4B5A798C4B1A71AD
:105560008B4B1A798A4BDA70894BDA78884B9A70B0
:10557000874B9A78864B5A70854B5A78844B1A70B1
:10558000834B7E229A73824B9A7B814B5A73804B5A
:105590005A7B7F4B1A737E4B1A7B7D4BDA727C4BA6
:1055A000DA7A7B4B9A727A4B9A7A794B5A72784BA9
:1055B0003C225A75764B5A7D754B1A75744B1A7D81
:1055C000734BDA74724BDA7C714B9A74704B1822FD
:1055D0001A776F4B1A7F6E4BDA766E4BFF221A707A
:1055E0006C4B7E225A706B4B3C229A70694B18228E
:1055F000DA70694B1B78032B00F2BC8001A252F8D1
:1056000023F000BF155600086F560008C756000863
:105610001F570008FCF720FA0246604B1B68D31A9C
:10562000C8229342C0F0A88000237B6113E0584A4F
:105630007B691344183319783A467B6913440A4648
:105640001A70544BDA783B461146184601F06CFB51
:105650007B6901337B617B69072BE8DDFCF7FCF993
:1056600003464E4A13604C4B01221A7084E0FCF74B
:10567000F3F90246494B1B68D31AC82293427DD3E3
:1056800000233B6113E0424A3B691344103319780D
:105690003A463B6913440A461A703E4B9A783B4699
:1056A0001146184601F040FB3B6901333B613B6901
:1056B000072BE8DDFCF7D0F90346384A1360364B78
:1056C00002221A705AE0FCF7C7F90246334B1B68F6
:1056D000D31AC822934253D30023FB6013E02C4A11
:1056E000FB681344083319783A46FB6813440A46AA
:1056F0001A70284B5A783B461146184601F014FBA5
:10570000FB680133FB60FB68072BE8DDFCF7A4F9BD
:105710000346224A1360204B03221A7030E0FCF744
:105720009BF902461D4B1B68D31AC822934229D30A
:105730000023BB6012E0164ABB68134419783A464E
:10574000BB6813440A461A70124B1A783B4611463E
:10575000184601F0E9FABB680133BB60BB68072B50
:10576000E9DDFCF779F903460C4A13600A4B002285
:105770001A7007E000BF06E000BF04E000BF02E0CF
:1057800000BF00E000BF00BF1837BD4680BD00BFAE
:105790005C0200207C0200205502002058020020FC
:1057A00080B483B000AF154B03221A7000237B60D6
:1057B00018E0134A7B68134400221A7000233B60F0
:1057C0000AE0104A7B68DB001A443B68134400225D
:1057D0001A703B6801333B603B68072BF1DD7B6847
:1057E00001337B607B68032BE3DD074B03221A70D8
:1057F00000BF0C37BD4680BC704700BF10000020C2
:105800007C0200205C0200205502002080B582B09E
:1058100000AF78600B467B80224B1B780A2B3CD86C
:1058200001A252F823F000BF555800085D58000847
:1058300063580008695800086F5800087558000838
:105840007B58000881580008875800088D580008C8
:1058500093580008134B01221A701FE000F01EFA43
:105860001CE0FFF79DFF19E0FFF7B4FD16E0FEF71F
:1058700081FE13E0FFF72AFA10E000F09FFA0DE036
:1058800001F02EFA0AE001F079FB07E000F0FEFBE0
:1058900004E0044B00221A7000E000BF00BF08378C
:1058A000BD4680BD1000002080B582B000AF034629
:1058B000FB71FB790A2B3BD801A252F823F000BF01
:1058C000ED580008F3580008F9580008FF58000880
:1058D000055900080B59000811590008175900080C
:1058E0001F590008255900082B590008FEF721FF11
:1058F0001FE000F023F81CE000F044F819E0FFF787
:105900001DFE16E0FFF75EFC13E0FEF7C9FD10E098
:10591000FEF72CFF0DE00A2000F0F2F909E000F09C
:10592000D5FB06E001F038FA03E000F05DFA00E094
:1059300000BF00BF0837BD4680BD00BF80B584B042
:1059400000AF0F4A3B1D92E8030083E803000023E9
:10595000FB600CE08022FB6842FA03F3DAB23B1DE5
:105960001146184601F0E0F9FB680133FB60FB6863
:10597000072BEFDD00BF00BF1037BD4680BD00BF65
:10598000C09E000880B588B000AF9A4B1B78022BF0
:1059900000F0FD80022B00F36981002B02D0012B67
:1059A0006AD063E1944BFF221A70FCF755F8024667
:1059B000924B1B68D31A64229342C0F05981904BDA
:1059C0001B78002B26D08F4B1B688F4AFF21D154A8
:1059D000894B1B7819468C4801F0A6F98A4BDB7974
:1059E000FF2B03D1864B00221A7004E0854B1B6805
:1059F0000133844A13600023FB6107E0824AFB699C
:105A0000134400221A70FB690133FB61FB69072B09
:105A1000F4DD2BE07B4B1B687B4AFF21D154764B96
:105A20001B781946784801F07FF9774B1B78FF2BDC
:105A300009D1734B01221A70724B00221A606D4B10
:105A400001221A7004E06F4B1B68013B6D4A136022
:105A50000023BB6107E06C4ABB69134400221A7043
:105A6000BB690133BB61BB69072BF4DDFBF7F4FFB6
:105A70000346624A1360FBE05F4BFF221A70624BE1
:105A80001B78002B18D100237B6107E05E4A7B69FD
:105A9000134401221A707B6901337B617B69072BF8
:105AA000F4DD554B1B781946574801F03DF9FBF7DB
:105AB000D3FF0346514A1360FBF7CEFF02464F4B1C
:105AC0001B68D31A64229342C0F0D4804C4B1B78DD
:105AD000002B21D000233B610DE04B4A3B6913446E
